:0200000260009C
:10000000000001200D03060035030600370306003B
:10001000390306003B0306003D0306000000000014
:100020000000000000000000000000003F03060088
:1000300041030600000000004303060045030600DC
:100040004132060047030600F13A06004703060066
:100050004703060047030600C935060047030600AC
:100060004703060047030600470306004703060050
:100070004703060047030600470306004703060040
:10008000470306009D1C06004703060047030600C1
:1000900047030600470306000D6C060047030600F1
:1000A0004703060047030600470306004703060010
:1000B00047030600470306000000000000000000A0
:1000C00047030600470306004703060047030600F0
:1000D0004703060047030600470306000000000030
:1000E0000000000000000000000000000000000010
:1000F0000000000000000000000000000000000000
:1001000000000000000000000000000000000000EF
:1001100000000000000000000000000000000000DF
:1001200000000000000000000000000000000000CF
:1001300000000000000000000000000000000000BF
:1001400000000000000000000000000000000000AF
:10015000000000000000000000000000000000009F
:10016000000000000000000000000000000000008F
:10017000000000000000000000000000000000007F
:10018000000000000000000000000000000000006F
:10019000000000000000000000000000000000005F
:1001A000000000000000000000000000000000004F
:1001B000000000000000000000000000000000003F
:1001C000000000000000000000000000000000002F
:1001D000000000000000000000000000000000001F
:1001E000000000000000000000000000000000000F
:1001F00000000000000000000000000000000000FF
:10020000044B05481B1A062B02D9044B03B11847AF
:10021000704700BF47240020442400200000000055
:1002200005490648091A891001EBD171491002D01D
:10023000034B03B118477047442400204424002096
:100240000000000010B5064C237843B9FFF7D8FF33
:10025000044B13B10448AFF300800123237010BD99
:100260004824002000000000EC86060008B5084B7A
:100270001BB108490848AFF300800848036813B968
:10028000BDE80840CCE7064B002BF9D09847F7E7CC
:10029000000000004C240020EC86060040240020D2
:1002A00000000000134B002B08BF114B9D46A3F527
:1002B000803A00218B460F461148124A121A06F066
:1002C00043FF0D4B002B00D098470C4B002B00D068
:1002D00098470020002104000D000B4806F00EFE98
:1002E00006F040FE2000290004F0A8FA06F00CFEFB
:1002F00000000800000001200000000000000000D5
:1003000048240020742F0020316F06000649074A58
:10031000074B9B1A03DD043BC858D050FBDC02F0AE
:1003200041FCFFF7BFFF00003C880600B81D00201D
:1003300048240020FEE7FEE7FEE7FEE7FEE7FEE7D3
:10034000FEE7FEE7FEE7FEE7F0B595B000241546B0
:100350000F4608461E4602F0FDF93846234608229D
:10036000089505A91A9D09960D950A948DF82C40BB
:100370000C9402F04BFA9DF81430079806998DF80A
:10038000114003F00302012A0290039128D0022AAF
:1003900004D0384602F0E2F915B0F0BDBDF81650B1
:1003A000C3F3C2038DF81030C5F389150826082D54
:1003B0002C4628BF0824334622460EA9384602F0B0
:1003C00025FA2D1B214608AB02AA0EA8264400F0F0
:1003D000B7FD002DEBD1384602F0C0F915B0F0BDE5
:1003E000BDF81460059DC6F38316C3F3C204B200C2
:1003F0000EA9384608238DF81040C5F3952502F064
:1004000005FA08AB0093324628460EA902AB00F06D
:10041000F1FCBEE7014B01221A707047A8240020AE
:10042000704700BF00B583B0044B0093044A4023DB
:10043000FFF78AFF03B05DF804FB00BF4504060028
:100440006824002038B50E480E4D03780E4CEB5C46
:1004500000252570D2B253B90C3003F091FD58B984
:100460000A4B1B7813B12378002BFCD038BD043025
:1004700004F010F80028F3D001F012F8F0E700BF04
:10048000B81D0020702F0020A82400206424002024
:1004900070B51348134A0378D35C88B0DBB90C30CD
:1004A00003F008FD104D0FCD6C460FC495E80F000A
:1004B00008AD062645F8206D84E80F002946002285
:1004C000074802F051FE08B100F0EAFF074B002296
:1004D0001A7008B070BD043003F05AFFE2E700BFA5
:1004E000B81D0020702F0020BC7706006424002077
:1004F00070B50D4D0FCD88B06C460FC495E80F0058
:1005000008AD062645F8206D84E80F002946074A05
:10051000074802F029FE08B100F0C2FF054B012296
:100520001A7008B070BD00BFBC7706001504060045
:10053000B81D00206424002008B5FFF7D9FF04216E
:10054000034800F00FFC034B01225A7108BD00BFA5
:1005500024880600CC1D0020F0B5334D85B005F58C
:10056000836001F09DFC05F2144001F099FC6B687A
:10057000AE6803EA0600C11C05EB810215F82140B4
:1005800014F004040ED0117801F0030101293BD0CE
:10059000022903F1020700F1030126D005EB8102D5
:1005A000002CF0D105EB80005A1CC168019132404B
:1005B00005EB820201F00301D2680292012903F1E6
:1005C000020429D0022925D1BDF80630BDF80A6001
:1005D000C3F38913033304EB9304144801F06EFC56
:1005E00000B16C60304605B0F0BD538807EB931343
:1005F00006EA0300C11C05EB810215F8214004F056
:100600000404002CBFD1CDE711880233C1F383115C
:100610000B44EDE70026E0E7BDF80430BDF80A60C2
:10062000C3F383131C44D8E77C25002090290020C5
:100630000B4B0C4810B50022FF21C3F81824996019
:100640001A605A60C3F8142483F8202402F01EF8BC
:10065000044610B9044802F019FA204610BD00BF44
:100660007C250020D0870600FC77060021B9114BBD
:1006700003EBC0000068704730B40F4A0D4C121BEA
:10068000D2080CD00D4D2B88834210D0002303E0FC
:1006900035F82310814205D001339A42F8D1002069
:1006A00030BC704704EBC300006830BC7047204684
:1006B000FAE700BF38870600D087060044240020F0
:1006C000094B013903EBC00003290BD8DFE801F027
:1006D000020806040220704740797047007970478D
:1006E0000420704700207047388706002DE9F04746
:1006F000944C94E80C009A4284B000F0BB80002334
:10070000C4F81834BFF34F8F6368A56803EA050186
:10071000CA1C04EB820614F8222050071AD5276859
:10072000327802F00302012A44D0022A03F10202C5
:1007300002D1738802EB931305EA0301D4F818047D
:10074000CA1C04EB820628B99F4239D914F822202A
:100750005207E5D404EB81015A1CC96801912A4073
:1007600004EB820201F00301D2680292022903F134
:10077000020829D0012900F08180D4F810543DB13D
:100780002B6828469B689847EB681D68002DF7D1B9
:100790006D486E4B6E49C01AC008000440F002005C
:1007A00000F0DCF860682368C01A18BF012004B0AC
:1007B000BDE8F08732880233C2F383121344BBE7EB
:1007C000676004B0BDE8F087BDF806306148C3F348
:1007D00089194F46502FA8BF502767F38F1307F191
:1007E0000801ADF8063001F053FF06460028C4D0DA
:1007F00025EA080A0AF1010A01F0ACFF4FEA8A0A69
:100800000023082201A9304601F0CAFF574572D9DA
:10081000BAF1000F7ED13A4608234F49304601F025
:10082000BFFF09F1030708EB9707D4F81834002B32
:100830006CD1D4F810545DB1EB685A793146284632
:100840001AB12B681B689847EB681D68002DF3D11F
:10085000304601F083FF04A8002300F80D3D01F0AD
:100860008DF8D4F8183403B967609DF8030001F0DF
:10087000ABF897E7002004B0BDE8F087BDF804307E
:100880003448C3F38312062A28BF0622911C62F360
:1008900089138900ADF8043001F0FAFE06460028FD
:1008A0003FF46BAF01F056FF0023082201A9304648
:1008B00001F076FFBDF8043013F4707F3FD04FF0A5
:1008C000000A4FF0080905EA080103314B4604EB22
:1008D00081010422304601F063FFBDF804300AF1C3
:1008E000010AC3F3831308F10107534509F1040911
:1008F000B846E8D899E705EA0801033104EB81011D
:100900003A460823304601F04BFF8AE7304601F0B3
:1009100025FF47E705EA08010331A7EB0A0504EBC9
:10092000810152463046EDB2082301F039FF2A46D4
:100930000AF108030849304601F032FF71E74746E3
:1009400073E700BF7C25002060870600388706001B
:1009500008780600D0870600882500202DE9F0439E
:1009600083B002AB002203F8012DDFF8E0900746C8
:1009700018468846D9F8085001F000F8D9F8082040
:10098000D9F80430D9F80060134401339B1B012BC4
:1009900057D809F21C440121204601F065FAFFF7FF
:1009A000DBFD0146204601F05FFA99E80A00D9F81C
:1009B0000820134401335B1A012BECD901240A40AF
:1009C000033244F004036FF3891302319DF80700EA
:1009D00049F82230C9F8001000F0F6FF00211A484B
:1009E00001F01AFA80F3100033192B4009EB83034E
:1009F00000043540033540EA1740D86019F8253027
:100A000067F3C50309F8253039F825306FF38913EA
:100A100029F8253059F8252068F39F22134664F3FE
:100A200001036FF3820349F8252009F8253099F86E
:100A300020341BB1FFF75AFE0028FBD103B0BDE8FC
:100A4000F0833146BAE700BF982900207C250020BA
:100A50002DE9F04782B002AB002403F8014D374C7A
:100A60008046184692468946A56800F087FFA2682E
:100A70006368276813440133DB1B022B5BD804F245
:100A80001C460121304601F0EFF9FFF765FD0146F4
:100A9000304601F0E9F994E80A00A26813440133F2
:100AA0005B1A022BEDD901260A40033246F00403FB
:100AB00066F3891344F8223003319DF80700216062
:100AC00000F082FFBB1C2B4004EB830300211C4879
:100AD000C3F80CA001F0A0F980F31000BB192B4063
:100AE00004EB830300043D40033540EA1840D8601E
:100AF00014F8253068F3C50304F8253034F82530A0
:100B000066F3891324F8253054F8252069F39F22D1
:100B1000134666F301036FF3820344F8252004F8BB
:100B2000253094F820341BB1FFF7E0FD0028FBD1FD
:100B300002B0BDE8F0873946B5E700BF7C2500204C
:100B4000982900202DE9F04F85B004AD002405F868
:100B5000014D3C4C01938046284693468946A66841
:100B600000F00CFFA2686368276813440133DB1BA5
:100B7000032B65D804F21C450121284601F074F9C5
:100B8000FFF7EAFC0146284601F06EF994E80A00F6
:100B9000A268134401335B1A032BEDD901250A40E7
:100BA00003324FF0020A45F004036AF3891344F854
:100BB000223004319DF80F00216000F005FF07EBA3
:100BC0000A0EFA1C0EEA060E324004EB820204EB17
:100BD0008E0E019B1C48CEF80CB00021D36001F0B2
:100BE0001BF980F310007A19324004EB82020004F2
:100BF0003E40033640EA1840D06014F8262068F3DF
:100C0000C50204F8262034F826206AF3891224F855
:100C1000262054F8262069F39F22134665F301032A
:100C20006FF3820344F8262004F8263094F8203429
:100C30001BB1FFF75BFD0028FBD105B0BDE8F08FCD
:100C40003946ABE77C250020982900202DE9F04F9C
:100C500085B004AD002405F8014D404C0193804659
:100C600028468946A668934600F088FEA168636816
:100C700027680B440133DB1B042B6CD804F21C45A2
:100C80000121284601F0F0F8FFF766FC01462846EE
:100C900001F0EAF894E80C00A1680B4401339B1AB8
:100CA000042BEDD9012511404FF0030A033145F023
:100CB00004036AF3891344F8213005329DF80F00CC
:100CC000226000F081FEB81C07EB0A0E30400EEAED
:100CD000060E3A1D324004EB800004EB8E0E04EB4E
:100CE0008202019BC0F80CB00021CEF80C301C48E9
:100CF0000E9BD36001F090F880F310007A19324017
:100D000004EB820200043E40564440EA1840D060A2
:100D100014F8262068F3C50204F8262034F82620AB
:100D20006AF3891224F8262054F8262069F39F22BA
:100D3000134665F301036FF3820344F8262004F899
:100D4000263094F820341BB1FFF7D0FC0028FBD1EB
:100D500005B0BDE8F08F3A46A4E700BF7C2500202F
:100D60009829002030B4174DD5F8104400215CB10B
:100D7000E3681A798A4204D116E0DB681A798A425C
:100D800012D01B68002BF8D1C3681971D5F8103444
:100D900093B1DA68C36812681A60D5F81034DB685A
:100DA0001860084630BC704701310A29DFD14FF086
:100DB000FF31084630BC7047C5F81004C2681360A4
:100DC000EFE700BF7C25002038B5094BD3F810446D
:100DD000012583F820544CB1E3685D7123682046F7
:100DE0005B689847E3681C68002CF5D138BD00BFEC
:100DF0007C2500202DE9F04784B01D460C9C002383
:100E000094F80C802373EB8881460E461746002B1E
:100E10003BD1297A05290FD06B7A002B3DD1404B6D
:100E2000A88853F821A00021FFF720FC5246034672
:100E30003C49204601F0BCF8062F0FD8DFE807F048
:100E4000484D535A04633900F168B06896E80C00C5
:100E5000019100904946204601F0AAF82B7A052B13
:100E600005D06B7A5BB93049204601F0A1F82046E5
:100E700001F092F884F80C8004B0BDE8F0872B4AAA
:100E80002B49204601F094F8EDE7284A00922949C1
:100E9000294A204601F08CF8BBE7A888FFF710FC30
:100EA000264B234953F82020204601F081F8297A67
:100EB000B5E77069316996E80C000390B068F7688F
:100EC00002918DE881004946204601F071F8C5E79E
:100ED0004946204601F06CF8C0E732684946204692
:100EE00001F066F8BAE7494696E80C00204601F0A2
:100EF0005FF8B3E7B16896E80C00204600914946D8
:100F000001F056F8AAE7B068F768316996E80C0076
:100F100002918DE881004946204601F049F89DE79D
:100F200094780600847806009078060078780600A9
:100F30008078060060780600587806002078060061
:100F4000082900D970472DE9F04F1C4617460023A9
:100F5000227B237385B0FB88039206460D46002B47
:100F600076D1397A05290FD07B7A002B78D1424B84
:100F7000B88853F821800021FFF778FB42460346EA
:100F80003E49204601F014F8DFF810A1DFF8109177
:100F90004FF000084545494620462ED916F808204E
:100FA00008F1010801F004F8B8F1080FF2D1344952
:100FB000DFF8F0A0DFF8F080DFF8F090204600F0D6
:100FC000F7FF4FF0000B10E0D9F8001011444978FA
:100FD00011F0970F08BF2E22414620460BF1010B5E
:100FE00000F0E6FFBBF1080F1AD05D450FD916F8E7
:100FF0000B207E2AE8D92E22EEE708F1010851469F
:10100000204600F0D5FFB8F1080FC3D1CFE7514615
:1010100020460BF1010B00F0CBFFBBF1080FE4D130
:101020003B7A052B01D07B7A63B91649204600F044
:10103000BFFF204600F0B0FF9DF80C30237305B0D1
:10104000BDE8F08F104A1149204600F0B1FFECE7EF
:101050000D4A00920E490F4A204600F0A9FF80E792
:10106000B888FFF72DFB0C4B084953F82020204689
:1010700000F09EFF397A7AE79478060084780600BB
:101080005078060090780600787806008078060090
:101090006078060058780600207806004C78060034
:1010A000447806008C78060054780600D02300208F
:1010B00070B51A4B1D789DB1194B1C682378C0B2CE
:1010C000984210D004F10802002306E014F833100F
:1010D0008142164602F1080206D001339D42F5D145
:1010E00000231B78FFDE264602F064FA7378A3F132
:1010F0000103B3FA83F35B09834200D070BD094B4F
:10110000D3E900231343F9D1074B0848196800229B
:101110004908BDE8704000F0E7BB00BF382A002056
:10112000782A0020602A00203C2A0020402A002043
:101130002DE9F04F9C4E337887B0002B00F02E81C4
:10114000DFF87892994F9A4D4FF0000B4FF001085D
:101150003C6814F83B0002F02DFA04EBCB0314F8C2
:101160003B405B784FEA540E14F0010C15F80E105A
:10117000A3F10103B3FA83F314BF0A0901F00F02CC
:101180005B09042A00F2B280DFE802F07A683826B0
:101190000300984240F0AC80BCF1000F14BF0F2355
:1011A000F02303EA010314BF30210321194305F89A
:1011B0000E1032780BF1010B9345C9DBD9E90023FE
:1011C000134306D07B4B7C4819680022490800F085
:1011D0008BFB07B0BDE8F08F984200F08780BCF130
:1011E000000F0CBFF0230F2303EA01030CBF0421FF
:1011F0004021194305F80E103278DBE7984240F0A1
:10120000B580BCF1000F14BF0F23F02303EA0103E4
:10121000327814BF30210321194305F80E10002A3B
:10122000CCD0D7F800E09EF80030A34200F0B9809F
:101230000EF108010023013393428C4601F10801AD
:10124000B8D01EF83300A042F5D1DCF80430002BF2
:10125000B0D02046012198473278ABE7984213BFBF
:101260000023202302221A46BCF1000F12BF0F20D8
:10127000F020134601400B4305F80E30327899E711
:10128000984233D1BCF1000F0CBFF0230F2303EAC7
:1012900001030CBF0121102119434FF000030DF190
:1012A00017008DF817300023019305F80E1000F099
:1012B00065FBA4F1200308FA03F301930198C4F13C
:1012C000200128FA01F1084308FA04F10190009185
:1012D000D9E90023DDE900011043194302460B461A
:1012E0009DF81700C9E9002300F06EFB327861E732
:1012F000BCF1000F0CBFF0230F233078194005F824
:101300000E1098B1D7F800E09EF80030A3423CD010
:101310000EF10802002303E01EF83310A14235D07D
:1013200001338342944602F10802F5D14FF00003E5
:101330000DF117008DF817300023039300F01EFB0A
:10134000A4F12002C4F1200328FA03F308FA02F200
:101350001A4308FA04F103920291D9E90023DDE966
:10136000020122EA000023EA0101B7E7BCF1000F05
:101370000CBFF0230F2303EA01030CBF012110214E
:10138000194305F80E10327814E7F446DCF80430FF
:10139000002BCBD0002120469847C7E7DFF81C90F0
:1013A0000CE7F44651E700BF382A0020782A0020D5
:1013B000682A00203C2A0020402A0020602A0020C1
:1013C000092A01D807207047F0B583B00E460546BC
:1013D000144601F0B1FF18B901F062FF002831D1C5
:1013E0001C4A1D4B1D4F156000211D481C6010221A
:1013F0003E7005F0A9FE1B4B00200021741EC3E9BE
:101400000001E4B206B3184F032601E0FF2C1BD005
:1014100022B29DF8063015F832008DF8046005EB15
:10142000C20203F0FC0392788DF805206FF382036B
:101430003A4601A98DF8063001F088FF013CE4B27C
:101440000028E3D003B0F0BD084A0948002100F0AD
:101450003DFAF7E7782A00203C2A0020382A0020AD
:10146000682A0020602A0020B11006003111060011
:101470000079060070B5084D2B785BB1074E00244B
:101480003368012113F8340002F032F82B7801346C
:10149000A342F5D8002070BD382A0020782A002009
:1014A00000B585B000230390194601AA44F201005B
:1014B0000193029300F004F805B05DF804FB00BF4F
:1014C00010B572B6FFF780FCFFF710F90028FBD1CA
:1014D000104B114C1149E41AE408240444F00100B3
:1014E000FFF73CFA0E4B1B68DB0700D500BE44F04B
:1014F00002000C49FFF732FABFF34F8F0A490B4B3A
:10150000CA6802F4E0621343CB60BFF34F8F00BFA1
:10151000FDE700BF388706006087060010790600E7
:10152000F0ED00E01C79060000ED00E00400FA0593
:10153000D0E90223D1E90201994208BF90422CBFB1
:1015400001200020704700BF2DE9F04F87B00390C5
:1015500000F064FB40B1A349D1E9002312F180748B
:1015600043F10005C1E90045002103989E4C00F0BD
:1015700071FB002841D02368002B3ED09B4B25688F
:101580001B78002B37D0002D35D02B7F002B32D08D
:10159000974800F06FFB934A964BD2E90067D3E976
:1015A000002316EB000847F10009994508BF904554
:1015B0004046494603D218F1807049F10001D5E94F
:1015C0000223994208BF9042C0F03C812B6903B9C5
:1015D0002B776B69A8699847296961B12B7F53B153
:1015E000D5E90223561843F10007C5E902672946E9
:1015F000814801F06FFA002323600121039800F075
:1016000029FB002840F0FE8005A97C4800F0A6FBDD
:10161000F8B1794DDFF8D481784F0378012B7CD075
:10162000C0F08380022B0AD1002600E0067728460E
:1016300001F064FA0028F9D1012388F8003005A9E7
:10164000384600F0BBFB05A9384600F087FB0028B0
:10165000E3D1694E664FDFF88C9103E00D2873D01B
:1016600000232360304601F04FFA2368002800F081
:10167000B38063B12368D0E90201D3E90223994220
:1016800008BF90423BD223681B7F002B40D13046DD
:1016900001F034FA0546D5E902233846CDE90023A6
:1016A00000F0E8FAD9E90023DFF8488112EB000ADC
:1016B00043F1000BD8E900239B4508BF924503D2B4
:1016C0001AF1807A4BF1000BDDE90001B0EB0A0062
:1016D00061EB0B01012871F1000331DBDFF820B170
:1016E00058450FD8AA684FF496030021384600F0F9
:1016F0000DFA0028B2D12368002B69D0256007B00D
:10170000BDE8F08F384600F0B5FA00EB0B02EAE7CF
:101710002168304601F0DEF9B9E741682368994253
:1017200053D0284601F0F4F989E743681A7F002A6C
:1017300085D101221A774168284601F0CBF97EE76E
:101740000021384600F07AFA284B1B78002B87D00E
:101750002B7F002B84D0384600F08CFAD8E9002388
:10176000D9E900ABCDE900231AEB00024BF10003ED
:1017700010461946DDE90023994208BF904203D282
:1017800010F1807041F10001D5E90223994208BFB0
:10179000904252D32B6903B92B776B69A86998479C
:1017A000296900293FF45CAF2B7F002B3FF458AF31
:1017B000D5E9022312EB010A43F1000BC5E902ABA4
:1017C0002946304601F086F94AE70023236036E7D0
:1017D000039800F06DF991E7002B90D1039800F089
:1017E0006BF98CE7802A0020002B0020882A00203B
:1017F000D41D0020F82A002030790600E42A0020B9
:10180000FFFFB4001248DFF8548000F033FA114BA8
:10181000D3E90067D8E9002316EB000947F1000A75
:101820009A4508BF91454846514603D219F1807048
:101830004AF10001C8E90001E6E62946304601F018
:1018400049F90DE72946044801F044F9D3E600BF01
:10185000D41D0020802A002030790600F82A0020BC
:1018600010B5134B13491B68134882B058220193DB
:10187000082300F01DFA044610B1204602B010BD46
:101880000E4A0F4801A900F0B7F804460028F4D129
:1018900001210B4800F0B8F901231946094A08480C
:1018A00000F00EF9084B012220461A7002B010BD5C
:1018B0002C7906008C2A0020E42A00204915060015
:1018C000D41D0020FFFF7F00882A00204AB1A1F12B
:1018D00001010368B1FA81F149095A6119610020D7
:1018E00070470720704700BF037F0BB1002070478F
:1018F000F0B5826183B004461C480D4600F0BAF989
:101900001B4B1C49D3E90023D1E90067121843F1AE
:101910000003BB4208BFB24203D212F1807243F10E
:1019200000035219216943F10003C4E9022371B98C
:1019300001A9114800F0D4F980B100254460057078
:1019400001A90D4800F0FAF958B903B0F0BD2561BE
:1019500001A9094800F0C4F90028EED1042003B021
:10196000F0BD024800F08AF92846EEE7D41D0020B9
:10197000802A0020F82A0020E42A002070B4EFF327
:10198000108472B60D4B9A68AAB90D490D4E012507
:101990009D60D1F8805035401D60C1F88060D1F85D
:1019A00084505D604FF0FF33C1F88430027004B999
:1019B00062B670BC704701230370F8E7642F002003
:1019C00000E100E0FC06FFBD094B9A6872B168B9FE
:1019D00010B4EFF3108272B606491C680C605C68A4
:1019E0004C60986002B962B65DF8044B704700BF66
:1019F000642F002000E100E0F8B5254C4379254E26
:101A000004EBC30546F823202D796DBB03680A88D3
:101A1000C3F8082590F904308A78002B30DB03F1F5
:101A2000604303F561435201D2B283F8002390F979
:101A30000420194F194E1A4B012502F01F015209BB
:101A400005FA01F147F822104279164944F83200AC
:101A50009B1BD80804EBC204000440F0030025716E
:101A6000FEF77CFF0020F8BD0C4B0D480E49C01A54
:101A7000C008000440F00200FEF770FF0820F8BD27
:101A80000A4903F00F0352011944D2B20A76CEE795
:101A9000042B00200C2B002000E100E0388706001A
:101AA000708706007C79060058790600FCEC00E09F
:101AB000036801221A607047036801225A60704768
:101AC000F0B404684FF480358D40C4F808530668BC
:101AD0008C00C6F8485304F5A0740668A4B2002729
:101AE000375182B036590468019601F5A87122F089
:101AF0007F42019E44F821200268C2F8445313B18A
:101B00000368C3F8045302B0F0BC70472DE9F041FC
:101B100004464FF4803600688E40C0F84863206861
:101B2000C0F8086320688D004719D0F804E5D7F89D
:101B30004005C7F840E505F5A075ADB227684FF040
:101B4000000847F8058084B0A0EB0E007F5902978B
:101B500020F07F40012822F07F47029A31D022688E
:101B6000D2F80455C2F844637A1B22F07F42012A5E
:101B700001F5A87136D0226842F821702268D2F8A7
:101B80000455781BC3F1FF13013803F57F4320F0A0
:101B90007F40834203D20D2004B0BDE8F08138B904
:101BA000013742F821702268D2F804359D42F2D103
:101BB000C2F8446323680020C3F8046304B0BDE89E
:101BC000F081104A8DE80A0042F001024FF4806073
:101BD0009047226842F8058052590392039A9DE883
:101BE0000A00BCE72068074B013740F8217043F03A
:101BF00001034FF4806098472268D2F804359D4273
:101C0000C9D1D5E75079060002680223C2F84433EF
:101C100011B10268C2F80433704700BF0368D3F8FB
:101C2000040148B10022C3F8042182B0D3F8043182
:101C30000193019B012002B0704700BF4FF4803335
:101C4000026803FA01F1C2F848130368C3F80813E5
:101C5000704700BF890001F5A07189B20368585828
:101C600038B100225A5082B05B580193019B012089
:101C700002B070470368D3F80405704790F9043048
:101C800005485A09403203F01F03012101FA03F30A
:101C900040F82230704700BF00E100E0024A034BE9
:101CA00010681B68184700BF042B00200C2B002075
:101CB00099B110B4B2FBF3F403FB1424A4B21CB129
:101CC00009205DF8044B704780E81200846082812F
:101CD000C38120465DF8044B70470E20704700BF5B
:101CE00030B482B050E8013F9DB2C4892544848954
:101CF000A54228BF2D1B0489A54202BFBFF32F8F29
:101D0000002207E0C5EA030540E80154002CE9D1B0
:101D10004FF001028DF803200193019B9DF80320F1
:101D20000B602AB10B880068184402B030BC7047C1
:101D300002F0FF03184602B030BC70470A884B8897
:101D40009A4201D00020704750E8012FC2EA0242B7
:101D500040E80123002BF7D10120704730B482B056
:101D600050E8023F1FFAA3F5C488A54202BFBFF3A3
:101D70002F8F00220DE0C48925448489A54228BF05
:101D80002D1BC3EA054540E80254002CE8D14FF072
:101D900001028DF803200193019B9DF803200B6045
:101DA0002AB14B880068184402B030BC704702F07A
:101DB000FF03184602B030BC704700BF0A884B884A
:101DC0009A4201D00020704750E8022FC2EA224216
:101DD00040E80223002BF7D10120704701F01F02D9
:101DE0004B09012100EB8300914000F021B800BFB6
:101DF00001F01F0201234909934000EB8100D94300
:101E000000F024B84B0901F01F0150F82300C8402E
:101E100000F00100704700BF00B550E8002F0B46EE
:101E200040E8003E9EF0000FF7D110465DF804FB3D
:101E300000B550E8003F43EA010240E8002E9EF062
:101E4000000FF6D110465DF804FB00BF00B550E866
:101E5000003F03EA010240E8002E9EF0000FF6D199
:101E600010465DF804FB00BF00B550E8003F03EBEF
:101E7000010240E8002E9EF0000FF6D110465DF8FA
:101E800004FB00BF00B550E8003FA3EB010240E8AF
:101E9000002E9EF0000FF6D110465DF804FB00BF47
:101EA00000B5012350E8002F42EA030E40E800E1AC
:101EB00091F0000FF6D170465DF804FB00B50023E9
:101EC00050E800EF0EEA030240E8002191F0000F15
:101ED000F6D170465DF804FBB8B130B44168826851
:101EE0000468521AD2B2531E2160DBB242B10168BB
:101EF0000A685C1E551C0D601370E3B2FF2BF6D10F
:101F000003680020187130BC70470E20704700BF76
:101F1000F0B583B002AB002503F8015D0446184616
:101F2000FFF72CFD236861681A688A4210D9511E98
:101F300019602168A3680E6812F8015C0A79278A83
:101F4000E0689B1BDBB29A4207FB050538BF0B71AB
:101F50009DF80700FFF738FD284603B0F0BD00BF2D
:101F600030B583B002AB002203F8012D05461846B8
:101F70000C46FFF703FD2A681368591C1160E968D5
:101F80002A8A641AB4FBF2F41C709DF80700FFF76C
:101F90001BFD03B030BD00BF826802B9704710B5A9
:101FA000044643690168006998470023A36010BD97
:101FB0000EB400B582B0039929B102AA04AB42F86D
:101FC000043D00F0A3F802B05DF804EB03B07047E5
:101FD0002DE9F04F164683B0B1428A460546984631
:101FE000DDF830B00D9AC0F08D800B460127B3FBB1
:101FF000F6F39E4207F10107F9D9474538BF474636
:1020000012F00103009302D1BBF1000F59D1A8686F
:10201000012403E008F1FF3806FB04F4B8F1010FD6
:10202000F8D8BAFBF4F29642F6D9DFF8DC904FF01C
:102030000D0810E02968421CAA600B54AA686B685E
:102040009A4202D32846FFF7A7FFB4FBF6F4C4B1C7
:10205000BAFBF4F2A86819F802300A2B04FB12AAA2
:10206000E8D12968421CAA6001F80080A8686A6863
:102070009042DFD328460193FFF78EFFA868019BAB
:10208000D8E7009BB3B1BBF1000F13D0BB4588BFAD
:1020900020240FD9AB682A68591CA960D454AA68B7
:1020A0006B689A420BF1FF3B07D2BBF1000F01D0E6
:1020B000BB45EFD103B0BDE8F08F2846FFF76CFFBA
:1020C000F3E7930718D42024BB45A0D9A8682A6851
:1020D000431CAB601454A8686A6890420BF1FF3B44
:1020E00005D2BBF1000F93D0BB45F0D190E7284655
:1020F000FFF752FFA868F4E7B8F1000F0CBF3024D7
:102100002024E1E7012778E790790600002900F014
:10211000B9822DE9F04FDFF870A50D7885B006463D
:1021200091460C460134002D00F0A080252D40F092
:10213000A2814FF00008214614F8012B2D2A00F04F
:102140009481302A00F094812B2A00F086812A2A7B
:1021500000F0A181A2F13005EBB2092B98BF01314B
:1021600002D9CAE1A3F130050C4611F8012BA2F106
:10217000300005EB8503092802EB4303F2D92E2A30
:1021800000F09581002701E014F8012F02F0FB0315
:10219000682BF9D0253A532A63D8DFE812F04001C2
:1021A000620062006200620062006200620062001F
:1021B000620062006200620062006200620062000F
:1021C00062006200620062006200620062006200FF
:1021D00062006200620062006200620062006200EF
:1021E00062006200620062006200620062006200DF
:1021F00062006200620062006200620062006200CF
:10220000620062004F0162006200620062006200D0
:10221000620062006200620062002901D100620077
:10222000620062006200D10062006200620062002F
:1022300062006200AC00620062006E006200540046
:10224000620062004F01D9F800301A1DC9F8002061
:102250001968CDF804803B4600950A223046FFF706
:10226000B7FE01342578002D7FF45CAF337B002B63
:1022700040F0BD8105B0BDE8F08FD9F800301A1DDF
:10228000C9F8002018F0010F1F6840F03981002FB5
:1022900000F0D881384605F033F98046454515D918
:1022A000A5B14FF0200B00E085B1B2683368511C36
:1022B000B16003F802B0B26873689A4205F1FF3565
:1022C00002D33046FFF768FE4545EDD1013F17F8D0
:1022D000015F002DC5D00A2DB36800F07881326807
:1022E000591CB160D554B26873689A42EFD3304636
:1022F000FFF752FEEBE7D9F80020131DC9F80030B4
:10230000B36831681568581C3022B060CA54B3688D
:102310007268934280F027813268581C7821B0603F
:10232000D154B26873689A4280F022810022082357
:1023300001922946009310223046FFF749FE90E7AC
:10234000D9F800301A1DC9F80020D3F800B08BEA84
:10235000EB73A3EBEB73092B4FF0010108DD8AFB54
:102360000302DB17C3EBA203092B01F10101F6DC29
:10237000B94238BF39462DB3BBF1000F02DB18F06C
:10238000040F00D0013D18F0020F00D0D7B118F0B3
:10239000010F17D1002D00F04981A94238BF202339
:1023A00010D2B268501CB06030688354B268706854
:1023B000824205F1FF3580F03B81002D00F036812F
:1023C000A942EED1BBF1000FC0F23E8118F0040F1C
:1023D00040F0138108F00303022B00F0CD808DE85C
:1023E00020013B4659460A223046FFF7F1FD38E707
:1023F000D9F800301A1DC9F800201D78B3680A2DDD
:1024000000F030813268591CB160D554B2687368ED
:102410009A42FFF426AF3046FFF7BEFD21E7B368CE
:102420003268581C2521B060D154B26873689A4252
:10243000FFF417AF3046FFF7AFFD12E7D9F80030D1
:102440001A1DC9F800201968CDF804803B46009594
:1024500010223046FFF7BCFD03E7214614F8012B9C
:102460002D2A48F004087FF46CAE48F0010862E6BB
:1024700048F002085FE60A2DB3682FD03268591C75
:10248000B160D554B26873689A42FFF4EBAE30463F
:10249000FFF782FDE6E6D9F800301A1DC9F80020E2
:1024A0004A781D682E2A01F101047FF46BAE627830
:1024B000A2F13003092B04F101044FF000073FF6AD
:1024C00065AE07EB870702EB470714F8012FA2F16F
:1024D0003003092BA7F13007F3D957E6591C3268AE
:1024E000B1604FF00D01D154B36872689342C5D307
:1024F0003046FFF751FDB368C0E70C4600253EE6C5
:10250000B846A8EB070B18F8013B9BB10A2BB16842
:102510004CD03268481CB0605354B26873689A4219
:10252000EFD33046FFF738FDA8EB070B18F8013B57
:10253000002BEBD15D457FF694AE202702E0002D05
:102540003FF48FAEB2683368511CB1609F54B268DB
:1025500073689A4205F1FF3502D33046FFF71CFD40
:102560005D45ECD17DE63046FFF716FDB368D3E656
:102570003046FFF711FDD9E6002F7FF430AF002D74
:102580005ED0A94238BF3023BFF429AFB268501CD7
:10259000B06030688354B2687068824205F1FF35DC
:1025A0003CD2002D4CD0A942F0D118E7481C32682B
:1025B000B0604FF00D005054B16872689142A8D3DA
:1025C00030460293FFF7E8FCB168029BA1E7591C73
:1025D0003268B1604FF00D01D154B3687268934214
:1025E000FFF47DAE3046FFF7D7FCB36877E63046A0
:1025F00005B0BDE8F04FFFF7CFBCB268531CB36025
:1026000033682B209854B26873689A42FFF4E2AEA4
:1026100030460291FFF7C0FC0299DBE63046039397
:102620000291FFF7B9FC039B0299BAE70025C9E6BE
:10263000304603930291FFF7AFFC039B0299BCE67F
:102640000025CCE6B84629E6B268531CB36033686F
:102650002D209854B26873689A42CBF1000BFFF4B6
:10266000B9AED5E7591C3268B1604FF00D01D154B5
:10267000B36872689342FFF4C5AE3046FFF78CFC36
:10268000B368BFE6704700BF67666666FFF724BCA5
:102690002DE9F041B0F81080CF1CA8F104084744A0
:1026A0000646B7FBF8F7FFF733FC80B3FFB200250F
:1026B0000123013F0446A0F80680066005714371BE
:1026C00028D0804609E06379AF4203F101036371CA
:1026D000C8F80000066080461CD03046FFF718FCA2
:1026E00001350028EFD16679721E16D023460130DD
:1026F00082421B68FBD81F684EB1214600250C683A
:1027000001353846FFF72CFCAE422146F7D10020B8
:10271000BDE8F0812046BDE8F0812768EDE700BF05
:10272000F8B54679711E13D0024600230133994251
:102730001268FBD8176856B1014600240D680134B1
:102740003846FFF70DFCA6422946F7D1F8BDF8BD83
:102750000768F1E704300121FFF786BBF8B50121D6
:1027600004460430FFF78EFBC0B200B1F8BD6679B5
:10277000721E12D02346013082421B68FBD81F68AC
:10278000002EF3D0214600240D6801343846FFF7AF
:10279000E7FBA6422946F7D1F8BD2768F2E700BF5C
:1027A0002DE9F843C78890F805E0154607FB0EFEB3
:1027B000EC18AEF1040E1A1DA6458846B2FBF7F6DA
:1027C00038BFAEEB030507FB1621044616B1013EE8
:1027D0002468FCD17E1AAE4228BF2E469DB14FF030
:1027E0000009081DAD1B08EB09012044324604F026
:1027F00011FCAF42B14424683E464FF0000128BFAF
:102800002E46002DEDD1BDE8F88300BF2DE9F84339
:10281000C78890F805E0154607FB0EFEEC18AEF1F0
:10282000040E1A1DA6458846B2FBF7F638BFAEEB7C
:10283000030507FB1621044616B1013E2468FCD1AE
:102840007E1AAE4228BF2E469DB14FF000090431DA
:102850002144AD1B324608EB090004F0DBFBAF421C
:10286000B14424683E464FF0000128BF2E46002D9B
:10287000EDD1BDE8F88300BF41DF7047064A074B42
:1028800010B5002414701C60BFF35F8F0449054825
:1028900000F00AF9204610BD182B00201C2B002048
:1028A000A0790600102B002000B583B002A80023F9
:1028B00000F8013DFFF762F8F1EE103A23F09F03B4
:1028C000E1EE103ABFF35F8F0A4B4022C3F8842138
:1028D0009DF80700FFF778F804F092F928B920BFB7
:1028E00040BF20BF03B05DF804FBFFF7C5FF03B096
:1028F0005DF804FB00E100E0F0B583B002AB002519
:1029000003F8015D044618460E46FFF737F82368C2
:10291000A26819685868904238BF451CA94212D075
:1029200058685D68AA420BD800225A60E268531EBC
:10293000072B4CD8DFE803F033374B254B4B4B12BA
:1029400001355D60F2E7217C002931D004249DF837
:102950000700FFF739F8204603B0F0BD6368D6E9F9
:10296000006703EBC000C0E9006722681368506885
:1029700083420FD8C31A9168994238BF93600024EC
:10298000E5E76368326843F82020226813685068DE
:102990008342EFD9A16801310144CB1AEBE76368A8
:1029A00032781A54E1E76368328823F81020DCE7B4
:1029B00058685D68AA4211D901355D602268A16836
:1029C00013688B4234BF013300231360AEE76368A2
:1029D000314600FB023004F01DFBC6E75960EDE70D
:1029E00070B582B002AB002403F8014D04461846CE
:1029F0000E461546FEF7C2FF236819685A689142D1
:102A000011D019682DB91A68A068824238BF551CC8
:102A10001D60E268531E072B27D8DFE803F0151A64
:102A200026202626260C05249DF80700FEF7CCFF5D
:102A3000204602B070BD636803EBC101D1E90023F9
:102A40000024C6E90023EFE763685B5C3370002471
:102A5000EAE7636833F8113033800024E4E7636801
:102A600053F8213033600024DEE76368304602FB10
:102A7000013104F0CFFA0024D6E700BF03681868DC
:102A80005B68C01AB0FA80F0400970478268002382
:102A9000936082681361826853618268D360826840
:102AA000536082681360704701600B6843604A6836
:102AB000934204BF00234360704700BF436843B1A3
:102AC000026891680B4443605268934204BF00233C
:102AD0004360704770B54468064620680D4618B9D3
:102AE00008E02468206828B1B36829469847002880
:102AF000F7D120682860256070BD00BF4368186862
:102B000008B102681A60704743681868704700BFD0
:102B10004068036873B1994203D107E0814204D051
:102B2000034618680028F9D1704718460B680360FF
:102B3000012070471846704730B4184DA5F59472BF
:102B4000AB1ADB1003EBD3735B1002EBC30152F83B
:102B50003330984228BF0C4605D311E052F8333089
:102B600098420CD221468B1ADB1003EBD3735B1017
:102B7000914202EBC304F1D8094830BC70470D46BE
:102B8000984204D904F10802AA42D9D3F4E7606854
:102B9000034B002808BF1846EFE700BF007B060084
:102BA000C4790600F0B4B44B1A78062A20D0B34B8F
:102BB0001B68062B00F08A80B14AD2F8883043F4B3
:102BC0007003C2F88830BFF34F8FBFF36F8F4FF0A1
:102BD0001023D3F80022002AC0F28A81D3F80432ED
:102BE000002BC0F28581A74BA74A1A60F0BC704742
:102BF00004331B681807DAD1A44B1B6803F0F002FA
:102C0000302A00F0658103F0E003402B00F0608182
:102C10009E4B1B6803F0F003302B00F01E819B4B92
:102C20001B6803F0F002302A00F0078103F0E00394
:102C3000402B00F00281954B1B6803F0F003302B12
:102C400000F0EB80914B1B6803F0F002302A00F09B
:102C5000D08003F0E003402B00F0CB808B4B1B684F
:102C600003F0F003302B00F0B680884B1B6803F0B4
:102C7000F003302B00F09880844B1B6803F0F003C6
:102C8000502B3FD0814B1B6803F0F002302A28D034
:102C900003F0E003402B24D07C4B1B6803F0F002D0
:102CA000302A03D003F0E003402B80D14FF0804363
:102CB000D3F80024D2077FF57AAF6FF00102C3F892
:102CC00000246E4B1B68062B7FF476AF704B1B689D
:102CD000062B7FF471AF6F4A136843F4806313606F
:102CE0006AE76D4B6D4A1B6803F04F031360624B3C
:102CF0001B78062B7FF45BAF694B1B6818077FF4CA
:102D000056AFC9E74FF08052664BD2F80414C3F8AF
:102D10002015D2F80814C3F82415D2F80C14C3F8FF
:102D20002815D2F81014C3F82C15D2F81414C3F8CF
:102D30003015D2F81814C3F83415D2F81C14C3F89F
:102D40004015D2F82014C3F84415D2F82414C3F85F
:102D50004815D2F82814C3F84C15D2F82C14C3F82F
:102D60005015D2F83014C3F85415D2F83414C3F8FF
:102D70006015D2F83814C3F86415D2F83C14C3F8BF
:102D80006815D2F840143C48C3F86C15D2F84414C6
:102D90000278C3F87015062A7FF409AF404B1B6810
:102DA0001C077FF404AF6DE73F4E404C4049414B58
:102DB0000527012500203F223760256008601A6042
:102DC0002D4B1B78062B7FF4F2AE354B1B681D078D
:102DD0007FF4EDAE50E7284B374A1B780321062BD2
:102DE00011607FF4E4AE2E4B1B681E077FF4DFAE4C
:102DF0003BE74FF080430022C3F80C21C3F81021B9
:102E0000C3F838251C4B1B78062B7FF470AF244B7E
:102E10001B681F077FF4CBAE20E72849164ACB6812
:102E2000127823F08073062ACB607FF4C0AE1C4B6F
:102E30001B681B077FF4BBAE04E7214B0E4A1B68DF
:102E400012782049C3F34233062A0B60B8D1144BE1
:102E50001B681A077FF4ABAEEDE6074B1A4A1B78E6
:102E60001A491160062B7FF4A2AE0D4B1B6819079F
:102E70007FF49DAED3E600BFE00F00F030010010FC
:102E800000ED00E0DC1D00200090D003E80F00F012
:102E9000340100103C17004058020010E40E0040BE
:102EA000E40F00F000C0004010560040885600407B
:102EB0001856004014560040A0050040F0ED00E018
:102EC000440200103C05004074C007400DF0ADBA4C
:102ED000204B214A1B6812782049C3F30423062A99
:102EE0000B608FD11E4B1B6819073FF491AE5EE655
:102EF0001C4B0122C3F80425D3F80024002AFBD080
:102F00004FF0102315221749C3F80022D1F80034DE
:102F1000002BFBD04FF010221521124BC2F80412E7
:102F2000D3F80024002AFBD000220E49C3F8042560
:102F3000D1F80034002BFBD0BFF34F8F0A490B4B65
:102F4000CA6802F4E0621343CB60BFF34F8F00BF47
:102F5000FDE700BF24030010E00F00F04035014002
:102F6000E40F00F000E0014000ED00E00400FA058D
:102F7000044B195C4FF0A04201238B40C2F80C3582
:102F8000704700BFEC7E0600044B195C4FF0A04276
:102F900001238B40C2F80835704700BFEC7E060065
:102FA000C20770B41AD54FF0A04303224FF4003685
:102FB0004FF480254FF400244FF48011C3F84427C8
:102FC000C3F84827C3F84C27C3F85027C3F808654F
:102FD000C3F80855C3F80845C3F8081583070AD590
:102FE0004FF0A0430C22C3F83427C3F83827C3F8A6
:102FF0003C27C3F8402770BC704700BF10B568B1CC
:1030000001280AD10C4C2369A07033B10CCB0120EC
:10301000226198472369002BF8D110BD064CA368A4
:1030200001226270002BF8D00CCB0020A2609847E0
:10303000A368002BF8D110BD202B002068B910B573
:10304000064CA3680122627033B10CCB0020A26051
:103050009847A368002BF8D110BD7047202B0020A3
:1030600030B5012883B01CD015D3032811D100F04E
:10307000C9F802A800231F4C00F8013DFEF77EFCB2
:10308000E368013BE360E56865B39DF80700FEF780
:103090009BFC03B030BD184B0122C3F8802003B065
:1030A00030BD02A80023134C00F8013DFEF766FC7A
:1030B000237853B1E3689DF8070001330122E360F0
:1030C000A270FEF781FC03B030BD0C486360A360C2
:1030D0002361E36000F088F803F092FD30B1012332
:1030E0002370E7E700F0A0F8A570CEE700F08AF8BB
:1030F000F5E700BF202B002000E100E0FD2F0600D7
:1031000070B50A4A0A4B067845688468C06853F867
:10311000213052F8211084B003908DF800600195A1
:103120008DF808406846984704B070BD342B0020E5
:10313000382B002070B50A4A0A4B06784568846827
:10314000C06853F8213052F8211084B003908DF8F4
:10315000006001958DF808406846984704B070BD3E
:10316000342B0020382B0020F0B51A4B06781A4D6E
:103170000C6991F81DC045F826400746174803F82A
:1031800006C040F826200C4696460FCC89B06D4606
:103190000FC594E80F0085E80F000496BCF1000FFE
:1031A0000BD0BEF1000F0E4A694607F1040008BFBC
:1031B000002200F0FFFF09B0F0BDBEF1000F094A88
:1031C000694607F10C0008BF002200F0ADFD09B010
:1031D000F0BD00BF702F0020342B0020382B0020C2
:1031E0000131060035310600054A13790BB18520FF
:1031F000704701211060537118461171704700BF6C
:103200003C2B0020074B1A68D20704D4C0210122AE
:1032100083F800131A604FF080430122C3F8182589
:10322000704700BF00E100E0044B01221A604FF03C
:103230008042D2F81834DB03FBD470470C00004006
:1032400010B5144B1A6882B062B10021124A19609D
:103250001B68507900934FF080410123009CC1F816
:10326000083390B10D4B1A686AB100221A601B68CE
:1032700001934FF080420221074B0198C2F80813D6
:103280001B680120984702B010BD11685371884730
:10329000E8E700BF000100403C2B00200401004093
:1032A00070B5214C94F8585082B015B1082002B086
:1032B00070BD4FF0FF332946FF26042204F154006D
:1032C00023636363A363E36323646364A364E364CA
:1032D00023606360A360E36023616361A361E361D2
:1032E000236284F850306362A36284F85230E36250
:1032F00084F8533084F8516003F026FF0B4A0C4BDE
:103300000C491D60C026402082F8066310601B68CF
:10331000019301984FF000430122284684F8582079
:10332000C1F8043302B070BD442B002000E100E07E
:103330007C61004000600040034B93F8580000306F
:1033400018BF0120704700BF442B0020F0B5664C29
:10335000231893F93050002D01DB0820F0BD91F8BF
:1033600002E0CEF3400EBEF1000F50D025680135CB
:1033700000F0B5800125082654F8253001334CD0E3
:103380006B1C54F82370013748D0AB1CB3423CD2BD
:1033900054F82370013741D0EB1CB34235D254F8B6
:1033A000237001373AD02B1DB3422ED254F823702C
:1033B000013733D06B1DB34227D254F82370013745
:1033C0002CD0AB1DB34220D254F82370013725D046
:1033D000EB1DB34219D254F8237001371ED005F10A
:1033E0000803B34211D254F82370013716D005F107
:1033F0000903B34209D254F8237001370ED00A35BD
:10340000B54202D2E36A013367D00420F0BD256AD9
:10341000013533D009250C26AEE72B4626185DB2C0
:1034200044F8232086F83050BEF1000F2CD08B7862
:103430005A0715D4DE0747D5830003F1A043D3F81C
:10344000002722F00202C3F80027284EC20800F02D
:10345000070EB75C012303FA0EF33B43B3548B789A
:1034600013F0020314D1083D2C44097894F850203D
:1034700042EA811284F850201846F0BD082683F8ED
:103480003060354622623346234483F84800CEE755
:10349000AD0005F1804505F5C0450A78D5F8101551
:1034A00021F4473121F44071C5F8101503021204CC
:1034B000D5F8101502F4403203F4F85313430B43CC
:1034C000C5F810350020F0BD4A784FF0A04600F551
:1034D000E073920046F82320B7E70B239EE7002510
:1034E000226083F83050A2E7442B0020982B002064
:1034F000F0B42E4D2E1882B096F93030072B1CDD1B
:103500002B4493F848309B09032B41D0012B14BF67
:103510004FF440314FF40031800000F1A040D0F86A
:10352000002722F44032C0F80027D0F800370B43C0
:10353000C0F8003702B0F0BC7047DAB2072AF9D8F9
:10354000980000F1804000F5C04003F14002920075
:10355000D0F8104592B202F18042002744F00104F5
:1035600002F5C042C0F81045019701981760002984
:10357000E0D096F9302055F82220002ADAD0012236
:103580000B4902FA03F3C1F8043302B0F0BC7047F0
:103590004FF0A043D3F81035C34013F0010F0CBF18
:1035A0004FF400314FF44031B6E700BF442B002008
:1035B000006000404FF0A043D3F8103523FA00F02C
:1035C00000F00100704700BF2DE9F04F87B00023E5
:1035D000CC4A01931168012900F00A821E46CA4BA9
:1035E0001A68012A00F0F681C84B1A68012A00F017
:1035F000E381C74B1A68012A00F0D081C54B1A68D5
:10360000012A00F0BD81C44B1A68012A00F0AA818A
:10361000C24B1A68012A00F09781C14B1A68012A2F
:1036200000F08481BF4B1A68012A00F05E8116F019
:10363000FF0F1AD0BC4F01250024A30003F18043E3
:103640002E4203F5C0434FEA45050BD0D3F81005D1
:1036500057F82420D3F81015C0F30420C1F301411A
:1036600002B190470134082CE7D1002E02DB07B0ED
:10367000BDE8F08F00224FF0FF33AB4C0292039372
:10368000012502AE94F950104F1C2DD0C9B221F083
:10369000C00006AB4FEAD00E03EB0E0701F00703A4
:1036A00017F80C2C05FA03F31A421DD022188909C9
:1036B00092F9302054F82220002A00F0F0800329EB
:1036C00000F0F0804FEA800E0EF1A04E17F814CCF7
:1036D000DEF800771CEA0303C7F3014940F0B88025
:1036E000B9F1030F00F0D7814FF0030A4FF0020940
:1036F0004FF00108002794F95110481C2DD0C9B291
:1037000021F0C00006AB4FEAD00C03EB0C0E01F029
:1037100007031EF80C2C05FA03F31A421DD02218D9
:10372000890992F9302054F82220002A00F0CA803A
:10373000032900F0CA804FEA800C0CF1A04C1EF85F
:1037400014BCDCF800E71BEA030FCEF3014E40F097
:103750009080BEF1030F00F08A8194F952104A1C48
:103760002CD0C9B221F0C00006AB4FEAD00C03EB5D
:103770000C0E01F007031EF80C2C05FA03F31A4295
:103780001CD02218890992F9302054F82220002AEE
:1037900000F08F80032900F08E804FEA800C0CF13E
:1037A000A04C1EF814ACDCF800E71AEA030FCEF3C5
:1037B000014E6AD1BEF1030F00F0468194F9531017
:1037C0004B1C2CD0C9B221F0C00006AB4FEAD00E82
:1037D00003EB0E0201F0070312F80CCC05FA03F319
:1037E0001CEA030F1BD004EB000C89099CF930C0C4
:1037F00054F82C90B9F1000F6ED003296ED04FEA27
:10380000800E0EF1A04E12F814CCDEF800271CEA50
:10381000030FC2F3014211D1032A00F0F580002FFB
:103820003FF425AF4FF0A043019AD3F810359A42E8
:103830003FF41DAF029A0193039223E7022AEED1CF
:10384000032900F04681B9F1000FE8D0C847E6E748
:10385000B9F1020F7FF448AF032900F043814FF024
:10386000030A4FF001080027002A3FF444AF9047B5
:1038700041E7BEF1020F7FF470AF032900F02C8105
:10388000002A3FF46AAF904767E7BEF1020F95D177
:10389000032900F02481002A90D090478EE7032965
:1038A0007FF422AF16F80EC04CEA030C06F80EC0E7
:1038B00008E7032982D116F80CA04AEA030A06F8A1
:1038C0000CA06AE703297FF448AF16F80CB04BEA66
:1038D000030B06F80CB02EE70329A0D116F80EC092
:1038E0004CEA030C06F80EC089E700221A601B6838
:1038F00005934FF0A043059AD3F81035019346F095
:10390000004694E600610040046100400861004008
:103910000C610040106100401461004018610040DB
:103920001C6100407C610040442B00206F4AD2F8AB
:10393000042312067FF576AE00221A601B680493FA
:10394000049B46F080066DE6684AD2F804235106CF
:103950007FF563AE00221A601B680493049B46F057
:1039600040065AE6614AD2F8042390067FF550AE2D
:1039700000221A601B680493049B46F0200647E669
:103980005A4AD2F80423D4067FF53DAE00221A60CD
:103990001B680493049B46F0100634E6534AD2F8A1
:1039A000042315077FF52AAE00221A601B680493D2
:1039B000049B46F0080621E64C4AD2F80423570738
:1039C0007FF517AE00221A601B680493049B46F033
:1039D00004060EE6454AD2F8042392077FF504AEAA
:1039E00000221A601B680493049B46F00206FBE564
:1039F0003E49D1F8046316F001063FF4F0AD1360C0
:103A000013680493049BEAE503297FF41CAF4FF489
:103A10000032DEF8003723F44033CEF80037DEF80A
:103A200000371343CEF80037B9F1000F01D04746F5
:103A30000CE74FF0A043019AD3F8103593427FF47E
:103A4000F9AE07B0BDE8F08F03297FF424AF4FF43F
:103A50000037DCF8003723F44033CCF80037DCF8CB
:103A600000373B43CCF800374746C84613E70329E5
:103A70007FF406AF4FF40037DCF8003723F440330F
:103A8000CCF80037DCF800373B43CCF8003747462A
:103A9000C846D146F4E6032906D0CA461F464FF071
:103AA00002094FF00108DFE64FF40037DEF8003777
:103AB00023F44033CEF80037DEF800373B43CEF82E
:103AC00000374FF0040A4FF003094FF002080127B6
:103AD000CAE64FF440329CE74FF44037CCE74FF44E
:103AE0004037B6E74FF44037E0E700BF00600040E2
:103AF000014B1B68184700BFA02B0020104B9842B9
:103B000001D00020704730B583B002A8002300F830
:103B1000013D0D46FDF732FF0A4B1C7934B19DF88B
:103B20000700FDF751FF112003B030BD01229DF8C1
:103B300007001D601A71FDF747FF204603B030BD36
:103B400000200040A02B0020034B984203D1034BE0
:103B500000221A601A71704700200040A02B00203C
:103B600030B56F4AD2F8043399058BB05BD5D2F8E3
:103B70002431002B57D00023C2F82431D2F824314D
:103B800001934FF40171674B0198C2F8081393F841
:103B9000291009B901215160614902228DF81820CC
:103BA000D1F88024C1F880249869D968099200224C
:103BB000089007919A6193E81200DA6106A8A0477D
:103BC000574AD2F81C31C3B1564B5869196A88421A
:103BD00065D993F8281001F0FF0000295FD1C2F8E1
:103BE0001C01D2F81C11039103999C68186A196A88
:103BF000205C01311962C2F81C05494AD2F84431EF
:103C00007BB10021474BC2F84411D2F8440193F82C
:103C100029100090009809B1012111609A69002AC9
:103C200054D10BB030BD3E4AD2F804335B07C7D540
:103C3000D2F80831002BC3D03A4B9969002954D0EF
:103C40000021C2F80811D2F8081104910499D8682B
:103C5000596AD2F8182542545A6A996901325A624F
:103C60005A6A8A42ACD1DA69002A47D193F82920EE
:103C700012B92B4A01215160294A4FF40171C2F84F
:103C80000813596ADA6808910024012007928DF818
:103C9000180093E806009C6106A8904790E7204A28
:103CA0000021C2F81C11D2F81C210292029A5A6912
:103CB000002AA2D058699A688DF8181008905961A6
:103CC000079206A893E80600904796E70022586AF4
:103CD000D9689A610122089007918DF8182006A8EA
:103CE00093E8060090470BB030BDC2F80811D2F837
:103CF000080105900598D2F81825B1E7DD685C6ADF
:103D000018699A6101210022D860DA615A628DF83F
:103D100018100795089493E8060006A890474FE707
:103D200000200040A82B00202DE9F0415C4E0579D1
:103D30002C2303FB056382B093F82A301BB10820C3
:103D400002B0BDE8F0810F4604465649006890462F
:103D5000FFF7D4FE18B1112002B0BDE8F0813A6837
:103D6000511C0BD04FF0A04101239340C1F80835FE
:103D70003B6803F5E073032241F823207B685A1C5B
:103D800006D003F5E0734FF0A042002142F8231063
:103D90002368BA69C3F82425397D7B7D22680B43EB
:103DA000C2F86C3597E806002368C3F81425C3F8F9
:103DB0000C153B7D012B49D02C2303FB05F3F21896
:103DC000C2F804803A69F250B8F1000F2DD0236890
:103DD0003A7F354F0021C3F81C11D3F81C310093F2
:103DE0002368DDF800E0C3F84411D3F844112368D8
:103DF00001910199C3F804732168090B4BB2002BA0
:103E000046DB03F1604303F561435201D2B283F80C
:103E100000232368254F1B0B5AB2520903F01F03DE
:103E2000012101FA03F347F822302C23246803FB15
:103E30000563002204250121C4F8005583F82A10E7
:103E40009A61DA6183F829205A6179E7BB68591CC5
:103E500006D003F5E0734FF0A042002142F8231092
:103E6000FB685A1C0DD001224FF0A04102FA03F367
:103E7000C1F80835FB6803F5E073032241F82320FD
:103E8000FB682268B968C2F80835C2F8101593E7D4
:103E9000074B01F00F0152010B44D2B21A76B8E77A
:103EA000A82B0020613B06008000020000E100E03A
:103EB000FCEC00E0F8B52F4D047902682C2303FBDD
:103EC000045300215B68C2F8001583B103682A4AD5
:103ED000C3F808230368294E1B0B5AB2520920323B
:103EE00003F01F03012101FA03F346F822300368AF
:103EF0004FF0FF32D3F80CE5D3F81475D3F808155A
:103F0000D3F81065C3F81425C3F80C25036896454B
:103F1000C3F80825C3F8102506D00EF5E07E4FF053
:103F2000A043022243F82E207B1C06D007F5E07741
:103F30004FF0A043022243F82720721C06D006F55A
:103F4000E0764FF0A043022243F826204B1C06D017
:103F500001F5E0714FF0A043022243F821200068F0
:103F6000FFF7F2FD2C2303FB0454002384F82A30CE
:103F70006360F8BDA82B00208402020000E100E08D
:103F8000F0B5304E05792C2303FB056385B05C69E1
:103F900014B1112005B0F0BD5A6199601C6283F81C
:103FA00028400268C2F81C41D2F81C110268029134
:103FB0000121029F91600268D3F808E0C2F81C4119
:103FC000D2F81C1101910199D3F820C0196A5F68D9
:103FD0001EF80CC001311962C2F81CC517B1204689
:103FE00005B0F0BD5C691A6A0168944203D819E013
:103FF00093F82820F2B9D1F81C21002AF8D0C1F892
:104000001C71D1F81C210392039AD3F820C01A6ABC
:104010001EF80CC001321A62C1F81CC51A6A94421B
:10402000E9D80168D1F81C31002BFBD00123CB600B
:10403000002000E00F202C2303FB056300225A61BF
:10404000A8E700BFA82B002070B5584BD3F8242157
:104050008AB0002A65D1D3F8101100292FD1534B13
:10406000D3F8442152B10021514AC3F84411D3F886
:10407000444190690394039C00287BD14B4BD3F8B7
:10408000202162B10021C3F82011D3F8202102922F
:104090000120474A029CD860506900285DD1434BFB
:1040A000D3F858214AB10021C3F85811D3F8580168
:1040B0003F4A01900198506928BB0AB070BDC3F80F
:1040C0001021D3F810113A48059105998469D3F865
:1040D0003C15A142C3D1C469002C5AD0D3F8006268
:1040E000C568846126F02006C3F800620369C261D6
:1040F00001220891C3600168436807958DF8182074
:1041000006A89847ABE7D3F84C05936808908DF85C
:1041100018105161079306A892E80A0098470AB060
:1041200070BD0021C3F82411D3F824210492022287
:104130008DF81820049AD3F880041D4AC3F880042F
:104140000990D3F83C05D36808909161D161079339
:104150001168536806A8984781E7D3F84C0593681F
:1041600008908DF818105161079306A892E80A008C
:10417000984794E7D3F83C35D068089301239161C0
:10418000D16107908DF8183006A892E80A00984788
:1041900074E7C2688461012308918DF81830079292
:1041A00090E80A0006A8984759E700BF00200040A1
:1041B000D42B00202DE9F0430479704EE7003B1921
:1041C00006EB830387B093F820301BB1082007B0BB
:1041D000BDE8F08389460546694900689046FFF7C7
:1041E0008DFC18B1112007B0BDE8F083D9F800208C
:1041F000511C0CD04FF0A04101239340C1F8083569
:10420000D9F8003003F5E073032241F82320D9F8F0
:1042100004305A1C06D003F5E0734FF0A042002191
:1042200042F823102B68D9F81820C3F8242599F8F0
:10423000141099F815202B680A43C3F86C252A68D6
:10424000D9F80030D9F80410C2F80C35C2F81415AA
:1042500099F81430012B62D03A199200B318C3F8C0
:104260000480D9F81030B350B8F1000F48D0296855
:1042700099F81C20DFF810E10023C1F81031D1F8C3
:10428000101101912968DDF804C0C1F82031D1F87E
:10429000201102912968DDF808C0C1F82431D1F855
:1042A000241103912968DDF80CC0C1F84431D1F81C
:1042B000441104912968DDF810C0C1F85831D1F8D3
:1042C00058112B6805910599C3F804E32968090B77
:1042D0004BB2002B4ADB03F1604303F5614352010B
:1042E000D2B283F800232B68DFF8A0E01B0B5AB290
:1042F000520903F01F03012101FA03F34EF82230A3
:104300003C442A6806EB8404002301250821C2F8F6
:10431000001584F82050A361E361636157E7D9F881
:104320000830591C06D003F5E0734FF0A04200217D
:1043300042F82310D9F80C305A1C0FD001224FF04C
:10434000A04102FA03F3C1F80835D9F80C3003F59F
:10435000E073032241F82320D9F80C302A68D9F8F9
:104360000810C2F80835C2F8101575E7054B01F0C2
:104370000F0152010B44D2B21A76B4E7D42B0020BD
:1043800049400600FCEC00E01003420000E100E0C0
:10439000F0B506793C4CF500AB1904EB830383B010
:1043A0005B6883B10368394AC3F808230368384F50
:1043B0001B0B5AB25209203203F01F03012101FAEC
:1043C00003F347F822300268D2F8003223F02003CA
:1043D000C2F8003202680123536002680021C2F86B
:1043E0005811D2F85811026801910199D3600268FE
:1043F000D2F85831002BFBD00023C2F800350368F7
:104400004FF0FF32D3F80CC5D3F814E5D3F80815F4
:10441000D3F81075C3F80C25C3F814250368944528
:10442000C3F80825C3F8102506D00CF5E07C4FF042
:10443000A043022243F82C20BEF1FF3F06D00EF528
:10444000E07E4FF0A043022243F82E207A1C06D0D3
:1044500007F5E0774FF0A043022243F827204B1CDA
:1044600006D001F5E0714FF0A043022243F821206D
:104470000068FFF769FB354404EB8504002384F8EA
:104480002030636003B0F0BDD42B00201003420045
:1044900000E100E001F06043B3F1005F01D01020C3
:1044A0007047F0B50579234EEF007C1906EB8404C4
:1044B00083B0636913B1112003B0F0BD6261A160E4
:1044C0000268C2F82031D2F820E10268CDF804E099
:1044D000DDF804E0C2F85831D2F8582100920268A1
:1044E000DDF800E0D4F814E0C2F84415C2F848E55D
:1044F00002680121916062680AB11846DCE703682E
:1045000000E0A1B9D3F82021D3F85811002AF8D03F
:1045100069B90122DA600268D2F85831002BFBD069
:1045200000207B1906EB830300225A61C4E70F20A9
:10453000F7E700BFD42B0020032801D907207047DC
:10454000012A12D0012917D008D30229F6D10D4B28
:1045500000EB4000034400205A707047094B00EB09
:104560004000034400209A707047012901D00022C6
:10457000E8E700F10E02D2B200EB4003014900204F
:10458000CA547047F82B002010B50388102B08D0B0
:10459000112B05D1264B18680138186038B110BDB1
:1045A00010BD234C216881B10131216010BD012271
:1045B0000221FFF7C1FF48B3072827D01D4B1B6816
:1045C000002BECD0BDE81040184701220846FFF749
:1045D000B3FF48B1072807D0164B1B6803B19847B3
:1045E00021680131216010BD072202210120FFF75F
:1045F000A3FF08B10728EFD1042202210020FFF712
:104600009BFF0028ECD00728E6D1E9E7072202212A
:104610000120FFF791FF08B10728CFD100210846FC
:104620000A22FFF789FF0028B9D00728C6D110BD9C
:10463000082C0020042C002075DF704776DF7047BF
:104640008FDF7047FCF72CBF0146014802F020B90C
:10465000982D00200378062B01D1406800B97047DF
:10466000FCF71EBF0D280FD110B50F480C4602F005
:10467000FBF958B143F20202904214D0082812D03C
:10468000BDE81040FCF70CBFFCF70ABF0748084B19
:104690000849C01AC0080004224640F00300BDE8E3
:1046A0001040FCF7D5B910BD982D0020608706009A
:1046B00038870600387F060070B50D78012D0C464E
:1046C00014D0022D11D11B4B1B480A791B49C01A6B
:1046D000C008000440F00300FCF7BAF9237928462B
:1046E000EBB9BDE87040FEF74FBC70BD0A1D064631
:1046F0004988134802F0ECF90E4B0F4862881149C3
:10470000C01AC008000440F00300FCF7A1F9FCF750
:10471000B1FE60B9304602F07BF920B970BDBDE84A
:104720007040FEF725BCBDE87040FCF7B9BEFCF751
:10473000B7FEEFE73887060060870600847F060033
:10474000982D0020507F060010B503881F2B82B0E3
:10475000044659D011D93B2B05D0562B03D0212B21
:1047600027D002B010BDA0881321FFF767FF0028F3
:10477000F7D0FCF795FE02B010BD102B25D0112B01
:10478000EFD1274B27482849C01AC008000440F041
:104790000300FCF7E3F8254801F034FF08B1FCF70B
:1047A0007FFE0120FEF7F0FB0020FEF7E1FB02B0E8
:1047B00010BD002380888DF8043001A98DF80530E4
:1047C000FFF73EFF0028CCD0D3E7154B154818491A
:1047D000C01AC008000440F00300FCF7BFF8002234
:1047E000A188144802F074F9B8B9A188124800F001
:1047F00011FC08B1FCF754FE0120FEF7B9FB0020C4
:10480000FEF7C2FB02B010BD00F108018088FFF77F
:1048100013FF0028ADD102B010BDFCF741FEE4E764
:104820003887060060870600287F0600C42D002018
:104830001C7F0600982D0020001E002000B54FF4BC
:10484000804185B00020FBF7F3FE08B1FCF728FE9D
:10485000FBF772FEFDF704F808B1FCF721FE01201A
:10486000FEF79EFB40F2333201214248FCF7A8FDDF
:1048700008B1FCF715FEFEF701F808B1FCF710FED1
:1048800002F036F908B1FCF70BFE04AC002344F843
:10489000103D0120214602F001FA08B1FCF700FEAC
:1048A000204602F0B5FA08B1FCF7FAFD102200210B
:1048B000204602F049FC01232F4A30488DF804308D
:1048C00021468DF80C3001F037FE08B1FCF7E8FD09
:1048D00000220121294801F01BFE08B1FCF7E0FD90
:1048E000274A2648002101F0E3FD08B1FCF7D8FD76
:1048F0000021244801F0CEF908B1FCF7D1FD0822CF
:104900000021204602F020FC1F4D204B0093204642
:10491000019500F0FFFA08B1FCF7C2FD1C4A1D4BDF
:104920001D48029321468DE8240002F013F808B1D7
:10493000FCF7B6FD194B1A481A49C01AC008000402
:1049400040F00300FCF70AF80C4801F05BFE08B1E8
:10495000FCF7A6FD0120FEF717FB0020FEF708FB81
:104960000020FEF705FBFBF7C1FE0028FBD1FDF799
:104970009BFFF8E7E01D002055460600C42D0020EF
:10498000C07F0600B02D0020E81D0020494606002B
:10499000B946060045460600982D002038870600D7
:1049A00060870600D07F06008AB380B3F8B54378ED
:1049B000092B2ED0C9B10024234601E0994214D915
:1049C000045D013423449BB2C5181C466D78092D43
:1049D000F4D1994209D9065D0233013EB6B29CB2C8
:1049E000A3198B4201DC04B10EB90020F8BD0546C5
:1049F0001046174602F084FDB042F6D1024629194E
:104A0000384602F0D7FAB0FA80F04009F8BD00202D
:104A1000704700242346DCE72DE9F04F0388B0F807
:104A200004A0103B99B081460A2B1BD8DFE803F0A5
:104A30002F281A1A1A1A1A1A1A1D0600047A484838
:104A40002409032C51466AD8FDF7D2F9032C68D00B
:104A500051464448FDF7CCF9022C66D051464248F5
:104A6000FDF7C6F919B0BDE8F08F037A002BF9D134
:104A7000437A3B481B0751466FD4FDF7B9F9F1E77C
:104A800051463A48FDF7B4F919B0BDE8F08F384AFD
:104A9000936818A8DB4340F8603D5168FDF7D6F9EC
:104AA000009B0193019B8BB34FF0000844462146C5
:104AB00001A8FDF7A7F930B118AB03EB480308F1E3
:104AC000010823F8284C0134142CF0D1CDF834809F
:104AD0000DAD0FCD02AC0FC40FCD0FC495E807008C
:104AE00084E80700B8F1000F10D0224E0DF10A0B38
:104AF00000273BF8025F204C204629460434FDF78E
:104B000077F9A642F8D101374745F2D1BAF1130F30
:104B100012D90420FCF7C4FC19B0BDE8F08FFDF7F2
:104B20005DF951460F48FDF759F951460E48FDF71A
:104B300055F919B0BDE8F08F51460C48FDF74EF914
:104B400051460D48FDF74AF999F80F30012B89D0ED
:104B500051460A48FDF742F984E7FDF73FF981E73E
:104B6000442E0020402E00203C2E0020342E002019
:104B70002C2E0020A82E0020302E0020382E0020C1
:104B80002DE9F041064688B00C461546002120224A
:104B9000684602F0D9FA96F8C63296F8C522C3EBF9
:104BA0000311C3EB81035B0006EB030E12279EF893
:104BB000040017FB0237511C0A378142374444D0A6
:104BC00082423AD201EBC10103EB41010A31314487
:104BD00000F1FF3C62453B891DD0CF880133BB42C9
:104BE00020D0013FBFB29BB21B4AADF8103000236A
:104BF000DFF868E023701068ADF8127004232A46CD
:104C0000694603968DF80030CDF808E001F074FA9B
:104C100008B0BDE8F081BEF808709F4213D00133A0
:104C20009BB2E1E70F46531C5FFA83F840451A46F2
:104C300086F8C53201F11201CCD80123002023707F
:104C400008B0BDE8F0810027EDE73B89BEF80870A9
:104C5000BB42E4D1F1E700BFCC2E0020614C06003E
:104C60002DE9F0433E4B0D461C6891F8C6320021F9
:104C7000A1B0164685F8C81224B3C3EB0311C3EBE9
:104C8000810359006A18374B92780746987890420A
:104C90002ED0012C16D9987990425BD0022C11D0DD
:104CA000987A904250D0032C0CD0987B904245D0FB
:104CB000042C07D0987C90423AD0052C02D0987DE5
:104CC000904230D0DFF8A08001AC7C220021204649
:104CD00002F03AFAD8F80030ADF8066003220295E7
:104CE0008DF804200BB12046984721B0BDE8F08331
:104CF000B3F800E0685A8645CBD1DFF86C80D8F86D
:104D0000009001ACB9F1000FDFD020467C220021D9
:104D100002F01AFA0123ADF80660029720468DF8DA
:104D20000430C847D1E79A8A6B5A9A42CAD1E4E75D
:104D3000B3F810E0685A8645BFD1DEE7B3F80CE05F
:104D4000685A8645B4D1D8E7B3F808E0685A864572
:104D5000A9D1D2E7B3F804E0685A86459ED1CCE7E2
:104D6000B02E0020B42E0020A82E00202DE9F04304
:104D70000446A9B020220D4601A8002102F0E4F962
:104D80005F4E94F8C73232680133DBB2934284F845
:104D9000C73230D294F8C6325A4F04940133DBB292
:104DA000C3EB0312C3EB8202520057F8230084F8CE
:104DB000C6324FF0000884F8C582A118A0507622B0
:104DC00002FB034381F804801A684F48CDF816208F
:104DD00002224E4B8DF804204FF0010E01A900680D
:104DE000ADF814E02A46039301F086F98146C0B974
:104DF00029B0BDE8F08300217C2284F8C81209A8FC
:104E000002F0A2F9424BADF826501B680A94032227
:104E10008DF82420002BEBD009A8984729B0BDE8D5
:104E2000F083316884F8C88294F8C63211B3C3EBBA
:104E30000312C3EB82035A00A318B8789B789842F8
:104E40002BD0012916D9B879984254D0022911D013
:104E5000B87A98424AD003290CD0B87B984240D007
:104E6000042907D0B87C984236D0052902D0B97DF4
:104E700099422CD0264F09AE7C220021304602F008
:104E800063F93B68ADF8265003220A948DF824207C
:104E9000002BADD030469847AAE7A65A38888642FC
:104EA000CFD11B4FD7F8008009AEB8F1000FE3D087
:104EB00030467C22002102F047F90123ADF826504C
:104EC000CDF8289030468DF82430C047D4E7B98A11
:104ED000A35A9942CED1E4E73E8AA05A8642C4D171
:104EE000DFE7BE89A05A8642BAD1DAE73E89A05AE6
:104EF0008642B0D1D5E7A65AB8888642A6D1D0E777
:104F0000B02E0020B42E0020CC2E0020614C0600D4
:104F1000A82E002080B1036873B1426862B130B43A
:104F200006480749074D084C03600A60002001232A
:104F30002860237030BC70470E207047A82E0020D8
:104F4000CC2E0020B02E0020AC2E002020B12D4B06
:104F50001B781BB9082070470E20704770B42A4C8C
:104F60002A4B2268002A41D081789D788D421BD03F
:104F7000012A44D99D798D4233D0022A3FD09D7AAF
:104F80008D4229D0032A3AD09D7B8D421FD0042A1E
:104F900035D09D7C8D4215D0052A30D09D7D8D4227
:104FA0000BD0042070BC70471E880588AE42DFD14C
:104FB0001749096809B30020F4E79D8A01888D42EA
:104FC000EFD1F5E71E8A0588AE42E5D1F0E79E896C
:104FD0000588AE42DBD1EBE71E890588AE42D1D110
:104FE000E6E706889D88AE42C7D1E1E70121006867
:104FF00043F8220021600020D4E7052AD1D8511CB3
:10500000F5E700BFAC2E0020B02E0020B42E00200B
:10501000A82E002088B1244B1B780BB908207047BC
:10502000224B1B68002BF9D0F0B590F8C86289B00C
:10503000044626B1112009B0F0BD0E2070470D4680
:105040004FF4BA6231461A4F02F07EF83146684694
:10505000202202F079F83868294601F051F9002839
:10506000E9D1144BA4F8CA521B68C4F8CC0284F8E6
:10507000C70284F8C60284F8C5022A4638680E4E74
:1050800023600227012569460394CDF812308DF87C
:105090000070ADF81050029601F02EF80028CAD129
:1050A00084F8C852C7E700BFAC2E0020B02E002005
:1050B000CC2E0020B42E0020614C060090B389B3A2
:1050C000774B1B7873B32DE9F04F0388113BA1B0E8
:1050D00004460D46222B00F2B580DFE813F04C02A7
:1050E000B300B300B300B300B300B300B300B30028
:1050F000B300B300B300B300B300B300B300B30018
:10510000B300B300B300B300B300B300B300B30007
:10511000B300B300B300B300B300B3002400B30086
:10512000ED00B60070478188B5F8CA328B4240F076
:105130008980C38895F8C662002B40F017837621DA
:1051400001FB06510369C1F8063095F8C432827A32
:105150001344062B00F38E8385F8C43201AE20225F
:1051600000213046A78801F0EFFF042200216846A5
:1051700001F0EAFF95F8C53295F8C622002B40F001
:105180006B83762303FB0253DB88ADF80030762374
:1051900003FB025343481B89ADF802300099424B90
:1051A00005913A4600680495032731468DF804704E
:1051B000039300F0A1FF0746002843D03B4BB4F80F
:1051C0000480186895F8C632002285F8C82248B3D2
:1051D000C3EB0311C3EB810359006A18344B927877
:1051E0009C78944200F09A8401281BD99C799442BF
:1051F00000F08D84022815D09C7A944200F08084BF
:1052000003280FD09C7B944200F07384042809D0BB
:105210009C7C944200F08F84052803D0987D9042B6
:1052200000F08384234C7C220021304601F08CFF67
:105230002368ADF80680032202958DF804200BB197
:105240003046984721B0BDE8F08F8288B1F8CA3265
:105250009A42F7D1C08891F8C6E291F8C572002849
:1052600040F0A8816389002B00F0A481762606FB1C
:105270000EF607EBC70306EB43060E442246D3891E
:10528000A3F52453082B00F2DE81DFE813F0DA01E6
:10529000D601D301DC01DC01DC01DC01DC0182018F
:1052A000AC2E0020CC2E0020614C0600B02E002039
:1052B000B42E0020A82E00208288B1F8CA329A426B
:1052C000C0D1C388002B40F0C08191F8C682817A9A
:1052D000C8EB0813C8EB83035E00AF1997F804907E
:1052E0004944062900F3D982C9B23971C6468945B5
:1052F0004B4680F0A6802246762000FB08F009EBA2
:10530000C90100EB410152F80C9F2944D2F80480F6
:10531000C1F80E80C1F80A9012894A8200228A825E
:10532000CA820A834A83397903F1010C8C4580F0E3
:1053300010820CEBCC01A44600EB41015CF816AFE7
:105340002944DCF80490C1F80E90C1F80AA0BCF81A
:1053500008C0A1F812C08A82CA820A834A833979B6
:1053600003F1020C8C4580F0F4810CEBCC01A446D7
:1053700000EB41015CF820AF2944DCF80490C1F84F
:105380000E90C1F80AA0BCF808C0A1F812C08A8229
:10539000CA820A834A83397903F1030C8C4580F071
:1053A000D8810CEBCC01A44600EB41015CF82AAF9C
:1053B0002944DCF80490C1F80E90C1F80AA0BCF8AA
:1053C00008C0A1F812C08A82CA820A834A83397946
:1053D00003F1040C8C4580F0BC810CEBCC01A4469D
:1053E00000EB41015CF834AF2944DCF80490C1F8CB
:1053F0000E90C1F80AA0BCF808C0A1F812C08A82B9
:10540000CA820A834A83397903F1050C8C4580F0FE
:10541000A0810CEBCC01A44600EB41015CF83E9F5F
:105420002944DCF80480C1F80E80C1F80A90BCF869
:1054300008C0A1F812C08A82CA820A834A833979D5
:105440000633013B03EBC30305EB430376273344E9
:1054500007FB0E5E5A8ABEF808309A4280F0F5804B
:10546000062900F0F28001AE85F8C5122022002145
:105470003046B4F8048001F067FE0422002168463B
:1054800001F062FE95F8C52295F8C632002A40F078
:10549000598307FB0357FA88ADF80020762202FBF8
:1054A0000353AD481B89ADF802300099AB4B059111
:1054B0000327424600688DF8047031460495039333
:1054C00000F01AFE074600283FF4BCAEA44BB4F827
:1054D0000480186895F8C632002285F8C822002892
:1054E0003FF4A0AEC3EB0312C3EB82035A00A9182A
:1054F0009C4B89789C788C4200F0A28301287FF62F
:1055000091AE9C798C4200F0B78302283FF48AAEBA
:105510009C7A8C4200F0A98303283FF483AE9C7BE5
:105520008C4200F09B8304283FF47CAE9C7C8C4230
:1055300000F08D8305283FF475AE987D88427FF496
:1055400071AE998AAB5A99427FF46CAE864CD4F80E
:105550000090B9F1000F3FF466AE7C220021304686
:1055600001F0F2FD0123ADF8068002978DF80430BA
:105570003046C84757E68288B1F8CA329A427FF46B
:1055800061AE00224FF6FF7381F8C822A1F8CA323B
:1055900058E69189B38A71832BB1F38A1BB1338B9F
:1055A0000BB1738B33B963890130984202F1060263
:1055B000FFF465AE762303FB0E5301371B790026FB
:1055C0009F428DF8006040F0B18001238DF80030DB
:1055D000DFF88C81A188D8F800603EB3762000FB0C
:1055E0000EF02A185F4B92789F78974200F07A82EB
:1055F000012E1BD99F79974200F05B82022E15D0B5
:105600009F7A974200F04E82032E0FD09F7B9742E5
:1056100000F04182042E09D09F7C974200F0348232
:10562000052E03D09F7D974200F0F9812846FFF7B1
:105630009DFB07E69389B382AEE793893383B38AF0
:10564000AAE79389F382B38AA6E7002685F8C562A4
:10565000A28869462846FFF793FA0746002840F0DB
:1056600071819DF80030002B3FF4ECADDFF8F08045
:10567000A188D8F8006095F8C6E2002ED6D0CEEB0F
:105680000E12CEEB82025200A818364B807893F8A7
:1056900002C0844500F08182012EC7D993F806C06C
:1056A000844500F08A82022EC0D093F80AC0844557
:1056B00000F07B82032EB9D093F80EC0844500F031
:1056C0008C82042EB2D093F812C0844500F07D8203
:1056D000052EABD093F816C08445A7D1988AAB5A53
:1056E0009842A3D1204BD3F800B0BBF1000F9DD05E
:1056F000D5F8CC92B9F1050F98D805EBC91A7622E6
:10570000AAF8D2120AF5357002FB0E5101F082FCA4
:1057100009F101030022B342CAF84CB38AF8D0223F
:10572000C5F8CC3200F07F82A1887FE785F8C5728A
:10573000A28869462846FFF723FA0746002840F06A
:10574000C5809DF80030002B3FF47CAD95F8C6E293
:105750003EE7634675E600BFCC2E0020614C060094
:10576000B02E0020B42E0020A82E0020DFF8708379
:10577000D8F80070002F3FF459AFC6EB0612C6EB05
:1057800082025200A818CE4B807893F802E086453A
:1057900000F0D080012F7FF649AF93F806E08645F0
:1057A00000F03581022F3FF441AF93F80AE08645BF
:1057B00000F02581032F3FF439AF93F80EE08645C2
:1057C00000F01581042F3FF431AF93F812E08645C5
:1057D00000F00581052F3FF429AF93F816E08645C8
:1057E0007FF424AF988AAB5A98427FF41FAFB54B31
:1057F000D3F80090B9F1000F3FF418AFD5F8CCB250
:10580000BBF1050F3FF612AF05EBCB1A7622AAF8D3
:10581000D2120AF5357002FB065101F0FBFB0BF1C9
:1058200001030222BB42CAF84C938AF8D022C5F881
:10583000CC327FF479AF05F534760027F36F30462C
:105840009847D8F8003001379F4206F18006F5D31B
:105850000023C5F8CC3267E7013BDBB2762103EBCE
:10586000C30301FB02F101EB43032B445B8A0133C9
:105870009BB28AE4944B954E9549F61AF608360485
:1058800046F002060623304685F8C432FBF766F878
:1058900030469049FBF762F860E48C4B8A4A8E49A7
:1058A000A3EB020A4FEADA0A06234FEA0A4A3B71DF
:1058B0004AF0020A5046AA5BFBF7CAF887495046ED
:1058C000FBF74CF895F8C6E2397910E5844BB4F84B
:1058D0000480196885F8C86295F8C63241B3C3EBF5
:1058E0000312C3EB82035A00A818754B80789C788A
:1058F000844200F04C8101291AD99C79844200F03D
:105900004081022914D09C7A844200F0348103291A
:105910000ED09C7B844200F02881042908D09C7C16
:10592000844200F01C81052902D0997D81423CD03F
:1059300001AE77E435F802C0B3F800E0F4457FF437
:1059400029AF54E7664BB4F80480186885F8C8623C
:1059500095F8C6320028EBD0C3EB0312C3EB8203E9
:105960005A00A918564B89789C788C4200F03D81EA
:105970000128DDD99C798C4200F04F810228D7D0D4
:105980009C7A8C4200F043810328D1D09C7B8C42CE
:1059900000F037810428CBD09C7C8C4200F02B8116
:1059A0000528C5D0987D8842C2D1998AAB5A9942C0
:1059B000BED1444CD4F8009001AEB9F1000F3FF4D1
:1059C00032AC30467C22002101F0BEFB0123ADF851
:1059D0000680029730468DF80430C84723E435F836
:1059E00002C0B3F810E0F4457FF4F4AEFFE635F8FA
:1059F00002C0B3F80CE0F4457FF4E4AEF7E635F806
:105A000002C0B3F808E0F4457FF4D4AEEFE635F811
:105A100002C0B3F804E0F4457FF4C4AEE7E69A8A26
:105A20002B5A9A427FF402AE264BD3F80090B9F17C
:105A3000000F3FF4FBADD5F8CC72052F3FF6F6AD65
:105A400005EBC71A7622AAF8D2120AF5357002FBC6
:105A50000E5101F0DFFA7B1C9E424FF00007CAF89E
:105A60004C938AF8D072C5F8CC327FF45DAE05F560
:105A70003476F36F30469847D8F8003001379F42AC
:105A800006F18006F5D3E3E6B3F810C02F5ABC4503
:105A90007FF4C6ADC8E7B3F80CC02F5ABC457FF4FD
:105AA000B9ADC1E7B3F808C02F5ABC457FF4ACAD1F
:105AB000BAE7B3F804C02F5ABC457FF49FADB3E7F3
:105AC000B42E0020A82E0020388706007887060014
:105AD000F07F06001080060058800600A0800600B7
